{
  "contractName": "InspectorRole",
  "abi": [
    {
      "inputs": [],
      "stateMutability": "nonpayable",
      "type": "constructor"
    },
    {
      "anonymous": false,
      "inputs": [
        {
          "indexed": true,
          "internalType": "address",
          "name": "account",
          "type": "address"
        }
      ],
      "name": "InspectorAdded",
      "type": "event"
    },
    {
      "anonymous": false,
      "inputs": [
        {
          "indexed": true,
          "internalType": "address",
          "name": "account",
          "type": "address"
        }
      ],
      "name": "InspectorRemoved",
      "type": "event"
    },
    {
      "inputs": [
        {
          "internalType": "address",
          "name": "account",
          "type": "address"
        }
      ],
      "name": "isInspector",
      "outputs": [
        {
          "internalType": "bool",
          "name": "",
          "type": "bool"
        }
      ],
      "stateMutability": "view",
      "type": "function"
    },
    {
      "inputs": [
        {
          "internalType": "address",
          "name": "account",
          "type": "address"
        }
      ],
      "name": "addInspector",
      "outputs": [],
      "stateMutability": "nonpayable",
      "type": "function"
    },
    {
      "inputs": [],
      "name": "renounceInspector",
      "outputs": [],
      "stateMutability": "nonpayable",
      "type": "function"
    }
  ],
  "bytecode": "0x608060405234801561001057600080fd5b506100203361002560201b60201c565b610242565b61003d81600061008360201b6101801790919060201c565b8073ffffffffffffffffffffffffffffffffffffffff167f9ca2a3611f65b351a79d20d5314a16e37fe9b947d2a36232e101bd615994450360405160405180910390a250565b610093828261016460201b60201c565b15610106576040517f08c379a000000000000000000000000000000000000000000000000000000000815260040180806020018281038252601f8152602001807f526f6c65733a206163636f756e7420616c72656164792068617320726f6c650081525060200191505060405180910390fd5b60018260000160008373ffffffffffffffffffffffffffffffffffffffff1673ffffffffffffffffffffffffffffffffffffffff16815260200190815260200160002060006101000a81548160ff0219169083151502179055505050565b60008073ffffffffffffffffffffffffffffffffffffffff168273ffffffffffffffffffffffffffffffffffffffff1614156101eb576040517f08c379a00000000000000000000000000000000000000000000000000000000081526004018080602001828103825260228152602001806107aa6022913960400191505060405180910390fd5b8260000160008373ffffffffffffffffffffffffffffffffffffffff1673ffffffffffffffffffffffffffffffffffffffff16815260200190815260200160002060009054906101000a900460ff16905092915050565b610559806102516000396000f3fe608060405234801561001057600080fd5b50600436106100415760003560e01c80630b20dbbe146100465780632cdad41c146100505780637e458492146100aa575b600080fd5b61004e6100ee565b005b6100926004803603602081101561006657600080fd5b81019080803573ffffffffffffffffffffffffffffffffffffffff1690602001909291905050506100f9565b60405180821515815260200191505060405180910390f35b6100ec600480360360208110156100c057600080fd5b81019080803573ffffffffffffffffffffffffffffffffffffffff169060200190929190505050610116565b005b6100f73361025b565b565b600061010f8260006102b590919063ffffffff16565b9050919050565b61011f336100f9565b610174576040517f08c379a00000000000000000000000000000000000000000000000000000000081526004018080602001828103825260368152602001806104ab6036913960400191505060405180910390fd5b61017d81610393565b50565b61018a82826102b5565b156101fd576040517f08c379a000000000000000000000000000000000000000000000000000000000815260040180806020018281038252601f8152602001807f526f6c65733a206163636f756e7420616c72656164792068617320726f6c650081525060200191505060405180910390fd5b60018260000160008373ffffffffffffffffffffffffffffffffffffffff1673ffffffffffffffffffffffffffffffffffffffff16815260200190815260200160002060006101000a81548160ff0219169083151502179055505050565b61026f8160006103ed90919063ffffffff16565b8073ffffffffffffffffffffffffffffffffffffffff167f737c9e54b555afb1794817809534974cb61ead2136d82d4a8fecb34d0932922060405160405180910390a250565b60008073ffffffffffffffffffffffffffffffffffffffff168273ffffffffffffffffffffffffffffffffffffffff16141561033c576040517f08c379a00000000000000000000000000000000000000000000000000000000081526004018080602001828103825260228152602001806105026022913960400191505060405180910390fd5b8260000160008373ffffffffffffffffffffffffffffffffffffffff1673ffffffffffffffffffffffffffffffffffffffff16815260200190815260200160002060009054906101000a900460ff16905092915050565b6103a781600061018090919063ffffffff16565b8073ffffffffffffffffffffffffffffffffffffffff167f9ca2a3611f65b351a79d20d5314a16e37fe9b947d2a36232e101bd615994450360405160405180910390a250565b6103f782826102b5565b61044c576040517f08c379a00000000000000000000000000000000000000000000000000000000081526004018080602001828103825260218152602001806104e16021913960400191505060405180910390fd5b60008260000160008373ffffffffffffffffffffffffffffffffffffffff1673ffffffffffffffffffffffffffffffffffffffff16815260200190815260200160002060006101000a81548160ff021916908315150217905550505056fe496e73706563746f72526f6c653a2063616c6c657220646f6573206e6f7420686176652074686520496e73706563746f7220726f6c65526f6c65733a206163636f756e7420646f6573206e6f74206861766520726f6c65526f6c65733a206163636f756e7420697320746865207a65726f2061646472657373a26469706673582212203ed872da90d1daf910ce98d3edf57137d7d142e483c20c4783338f23751d5e5d64736f6c634300060c0033526f6c65733a206163636f756e7420697320746865207a65726f2061646472657373",
  "immutableReferences": {},
  "source": "// SPDX-License-Identifier: MIT\n\npragma solidity >=0.6.00;\n\n// Based on openzeppelin-solidity@2.5.0:  openzeppelin-solidity\\contracts\\access\\roles\\CapperRole.sol\n\nimport \"../Roles.sol\";\n\ncontract InspectorRole {\n    using Roles for Roles.Role;\n\n    event InspectorAdded(address indexed account);\n    event InspectorRemoved(address indexed account);\n\n    Roles.Role private _Inspectors;\n\n    constructor () public {\n        _addInspector(msg.sender);\n    }\n\n    modifier onlyInspector() {\n        require(isInspector(msg.sender), \"InspectorRole: caller does not have the Inspector role\");\n        _;\n    }\n\n    function isInspector(address account) public view returns (bool) {\n        return _Inspectors.has(account);\n    }\n\n    function addInspector(address account) public onlyInspector {\n        _addInspector(account);\n    }\n\n    function renounceInspector() public {\n        _removeInspector(msg.sender);\n    }\n\n    function _addInspector(address account) internal {\n        _Inspectors.add(account);\n        emit InspectorAdded(account);\n    }\n\n    function _removeInspector(address account) internal {\n        _Inspectors.remove(account);\n        emit InspectorRemoved(account);\n    }\n}\n",
  "sourcePath": "/home/ubuntu/Desktop/Drug_Supply_Chain/Readchain/Drug_SupplyChain/contracts/access/roles/InspectorRole.sol",
  "compiler": {
    "name": "solc",
    "version": "0.6.12+commit.27d51765.Emscripten.clang"
  },
  "schemaVersion": "3.3.4",
  "updatedAt": "2021-03-19T13:54:58.042Z",
  "devdoc": {
    "kind": "dev",
    "methods": {},
    "version": 1
  },
  "userdoc": {
    "kind": "user",
    "methods": {},
    "version": 1
  }
}