{
  "contractName": "ProducerRole",
  "abi": [
    {
      "inputs": [],
      "stateMutability": "nonpayable",
      "type": "constructor"
    },
    {
      "anonymous": false,
      "inputs": [
        {
          "indexed": true,
          "internalType": "address",
          "name": "account",
          "type": "address"
        }
      ],
      "name": "ProducerAdded",
      "type": "event"
    },
    {
      "anonymous": false,
      "inputs": [
        {
          "indexed": true,
          "internalType": "address",
          "name": "account",
          "type": "address"
        }
      ],
      "name": "ProducerRemoved",
      "type": "event"
    },
    {
      "inputs": [
        {
          "internalType": "address",
          "name": "account",
          "type": "address"
        }
      ],
      "name": "isProducer",
      "outputs": [
        {
          "internalType": "bool",
          "name": "",
          "type": "bool"
        }
      ],
      "stateMutability": "view",
      "type": "function"
    },
    {
      "inputs": [
        {
          "internalType": "address",
          "name": "account",
          "type": "address"
        }
      ],
      "name": "addProducer",
      "outputs": [],
      "stateMutability": "nonpayable",
      "type": "function"
    },
    {
      "inputs": [],
      "name": "renounceProducer",
      "outputs": [],
      "stateMutability": "nonpayable",
      "type": "function"
    }
  ],
  "bytecode": "0x608060405234801561001057600080fd5b506100203361002560201b60201c565b610242565b61003d81600061008360201b6101801790919060201c565b8073ffffffffffffffffffffffffffffffffffffffff167f2977383b0207d39ef14220620b6cf3e6c9b6e78592af90baeef6614ed2fcd2c660405160405180910390a250565b610093828261016460201b60201c565b15610106576040517f08c379a000000000000000000000000000000000000000000000000000000000815260040180806020018281038252601f8152602001807f526f6c65733a206163636f756e7420616c72656164792068617320726f6c650081525060200191505060405180910390fd5b60018260000160008373ffffffffffffffffffffffffffffffffffffffff1673ffffffffffffffffffffffffffffffffffffffff16815260200190815260200160002060006101000a81548160ff0219169083151502179055505050565b60008073ffffffffffffffffffffffffffffffffffffffff168273ffffffffffffffffffffffffffffffffffffffff1614156101eb576040517f08c379a00000000000000000000000000000000000000000000000000000000081526004018080602001828103825260228152602001806107a86022913960400191505060405180910390fd5b8260000160008373ffffffffffffffffffffffffffffffffffffffff1673ffffffffffffffffffffffffffffffffffffffff16815260200190815260200160002060009054906101000a900460ff16905092915050565b610557806102516000396000f3fe608060405234801561001057600080fd5b50600436106100415760003560e01c8063ddf8016614610046578063f55210221461008a578063f9b867d8146100e4575b600080fd5b6100886004803603602081101561005c57600080fd5b81019080803573ffffffffffffffffffffffffffffffffffffffff1690602001909291905050506100ee565b005b6100cc600480360360208110156100a057600080fd5b81019080803573ffffffffffffffffffffffffffffffffffffffff169060200190929190505050610158565b60405180821515815260200191505060405180910390f35b6100ec610175565b005b6100f733610158565b61014c576040517f08c379a00000000000000000000000000000000000000000000000000000000081526004018080602001828103825260348152602001806104ab6034913960400191505060405180910390fd5b6101558161025b565b50565b600061016e8260006102b590919063ffffffff16565b9050919050565b61017e33610393565b565b61018a82826102b5565b156101fd576040517f08c379a000000000000000000000000000000000000000000000000000000000815260040180806020018281038252601f8152602001807f526f6c65733a206163636f756e7420616c72656164792068617320726f6c650081525060200191505060405180910390fd5b60018260000160008373ffffffffffffffffffffffffffffffffffffffff1673ffffffffffffffffffffffffffffffffffffffff16815260200190815260200160002060006101000a81548160ff0219169083151502179055505050565b61026f81600061018090919063ffffffff16565b8073ffffffffffffffffffffffffffffffffffffffff167f2977383b0207d39ef14220620b6cf3e6c9b6e78592af90baeef6614ed2fcd2c660405160405180910390a250565b60008073ffffffffffffffffffffffffffffffffffffffff168273ffffffffffffffffffffffffffffffffffffffff16141561033c576040517f08c379a00000000000000000000000000000000000000000000000000000000081526004018080602001828103825260228152602001806105006022913960400191505060405180910390fd5b8260000160008373ffffffffffffffffffffffffffffffffffffffff1673ffffffffffffffffffffffffffffffffffffffff16815260200190815260200160002060009054906101000a900460ff16905092915050565b6103a78160006103ed90919063ffffffff16565b8073ffffffffffffffffffffffffffffffffffffffff167fb78e9906c5bae930ccf756a5214c9855b1782f0eb30f9566de2384f034af48f360405160405180910390a250565b6103f782826102b5565b61044c576040517f08c379a00000000000000000000000000000000000000000000000000000000081526004018080602001828103825260218152602001806104df6021913960400191505060405180910390fd5b60008260000160008373ffffffffffffffffffffffffffffffffffffffff1673ffffffffffffffffffffffffffffffffffffffff16815260200190815260200160002060006101000a81548160ff021916908315150217905550505056fe50726f6475636572526f6c653a2063616c6c657220646f6573206e6f742068617665207468652050726f647563657220726f6c65526f6c65733a206163636f756e7420646f6573206e6f74206861766520726f6c65526f6c65733a206163636f756e7420697320746865207a65726f2061646472657373a2646970667358221220c5465e54f74eead4843b1ba3a9c27176acadc9ed881ce4f755b4201710a51bc764736f6c634300060c0033526f6c65733a206163636f756e7420697320746865207a65726f2061646472657373",
  "immutableReferences": {},
  "source": "// SPDX-License-Identifier: MIT\n\npragma solidity >=0.6.00;\n\n// Based on openzeppelin-solidity@2.5.0:  openzeppelin-solidity\\contracts\\access\\roles\\CapperRole.sol\n\nimport \"../Roles.sol\";\n\ncontract ProducerRole {\n    using Roles for Roles.Role;\n\n    event ProducerAdded(address indexed account);\n    event ProducerRemoved(address indexed account);\n\n    Roles.Role private _Producers;\n\n    constructor () public {\n        _addProducer(msg.sender);\n    }\n\n    modifier onlyProducer() {\n        require(isProducer(msg.sender), \"ProducerRole: caller does not have the Producer role\");\n        _;\n    }\n\n    function isProducer(address account) public view returns (bool) {\n        return _Producers.has(account);\n    }\n\n    function addProducer(address account) public onlyProducer {\n        _addProducer(account);\n    }\n\n    function renounceProducer() public {\n        _removeProducer(msg.sender);\n    }\n\n    function _addProducer(address account) internal {\n        _Producers.add(account);\n        emit ProducerAdded(account);\n    }\n\n    function _removeProducer(address account) internal {\n        _Producers.remove(account);\n        emit ProducerRemoved(account);\n    }\n}\n",
  "sourcePath": "/home/ubuntu/Desktop/Drug_Supply_Chain/Readchain/Drug_SupplyChain/contracts/access/roles/ProducerRole.sol",
  "compiler": {
    "name": "solc",
    "version": "0.6.12+commit.27d51765.Emscripten.clang"
  },
  "schemaVersion": "3.3.4",
  "updatedAt": "2021-03-19T13:54:58.044Z",
  "devdoc": {
    "kind": "dev",
    "methods": {},
    "version": 1
  },
  "userdoc": {
    "kind": "user",
    "methods": {},
    "version": 1
  }
}